{
  "contractName": "FixedDeposit",
  "abi": [
    {
      "inputs": [],
      "payable": false,
      "stateMutability": "nonpayable",
      "type": "constructor"
    },
    {
      "anonymous": false,
      "inputs": [
        {
          "indexed": true,
          "internalType": "address",
          "name": "_from",
          "type": "address"
        },
        {
          "indexed": false,
          "internalType": "uint256",
          "name": "_value",
          "type": "uint256"
        },
        {
          "indexed": false,
          "internalType": "string",
          "name": "_random",
          "type": "string"
        }
      ],
      "name": "AmountRead",
      "type": "event"
    },
    {
      "constant": true,
      "inputs": [],
      "name": "InterestRate",
      "outputs": [
        {
          "internalType": "uint8",
          "name": "",
          "type": "uint8"
        }
      ],
      "payable": false,
      "stateMutability": "view",
      "type": "function"
    },
    {
      "constant": true,
      "inputs": [],
      "name": "bank",
      "outputs": [
        {
          "internalType": "address payable",
          "name": "",
          "type": "address"
        }
      ],
      "payable": false,
      "stateMutability": "view",
      "type": "function"
    },
    {
      "constant": true,
      "inputs": [
        {
          "internalType": "address",
          "name": "",
          "type": "address"
        }
      ],
      "name": "compoundAmounts",
      "outputs": [
        {
          "internalType": "uint256",
          "name": "",
          "type": "uint256"
        }
      ],
      "payable": false,
      "stateMutability": "view",
      "type": "function"
    },
    {
      "constant": true,
      "inputs": [
        {
          "internalType": "address",
          "name": "",
          "type": "address"
        }
      ],
      "name": "deposits",
      "outputs": [
        {
          "internalType": "string",
          "name": "name",
          "type": "string"
        },
        {
          "internalType": "uint256",
          "name": "principle",
          "type": "uint256"
        },
        {
          "internalType": "uint256",
          "name": "dateTimeStarted",
          "type": "uint256"
        }
      ],
      "payable": false,
      "stateMutability": "view",
      "type": "function"
    },
    {
      "constant": true,
      "inputs": [],
      "name": "thisbalance",
      "outputs": [
        {
          "internalType": "uint256",
          "name": "",
          "type": "uint256"
        }
      ],
      "payable": false,
      "stateMutability": "view",
      "type": "function"
    },
    {
      "constant": false,
      "inputs": [
        {
          "internalType": "string",
          "name": "_name",
          "type": "string"
        }
      ],
      "name": "deposit",
      "outputs": [],
      "payable": true,
      "stateMutability": "payable",
      "type": "function"
    },
    {
      "constant": false,
      "inputs": [],
      "name": "viewAmount",
      "outputs": [
        {
          "internalType": "uint256",
          "name": "",
          "type": "uint256"
        }
      ],
      "payable": false,
      "stateMutability": "nonpayable",
      "type": "function"
    },
    {
      "constant": false,
      "inputs": [
        {
          "internalType": "address payable",
          "name": "_beneficiary",
          "type": "address"
        }
      ],
      "name": "withdraw",
      "outputs": [],
      "payable": true,
      "stateMutability": "payable",
      "type": "function"
    }
  ],
  "bytecode": "0x6080604052600a6000806101000a81548160ff021916908360ff16021790555034801561002b57600080fd5b5033600060016101000a81548173ffffffffffffffffffffffffffffffffffffffff021916908373ffffffffffffffffffffffffffffffffffffffff1602179055506109fb8061007c6000396000f3fe60806040526004361061007b5760003560e01c8063919848631161004e5780639198486314610177578063967aa935146101dc578063a26e118614610207578063fc7e286d146102c25761007b565b80632d9cbc621461008057806348dc0b6e146100ab57806351cff8d9146100dc57806376cdb03b14610120575b600080fd5b34801561008c57600080fd5b5061009561039a565b6040518082815260200191505060405180910390f35b3480156100b757600080fd5b506100c0610596565b604051808260ff1660ff16815260200191505060405180910390f35b61011e600480360360208110156100f257600080fd5b81019080803573ffffffffffffffffffffffffffffffffffffffff1690602001909291905050506105a8565b005b34801561012c57600080fd5b5061013561062c565b604051808273ffffffffffffffffffffffffffffffffffffffff1673ffffffffffffffffffffffffffffffffffffffff16815260200191505060405180910390f35b34801561018357600080fd5b506101c66004803603602081101561019a57600080fd5b81019080803573ffffffffffffffffffffffffffffffffffffffff169060200190929190505050610652565b6040518082815260200191505060405180910390f35b3480156101e857600080fd5b506101f161066a565b6040518082815260200191505060405180910390f35b6102c06004803603602081101561021d57600080fd5b810190808035906020019064010000000081111561023a57600080fd5b82018360208201111561024c57600080fd5b8035906020019184600183028401116401000000008311171561026e57600080fd5b91908080601f016020809104026020016040519081016040528093929190818152602001838380828437600081840152601f19601f820116905080830192505050505050509192919290505050610670565b005b3480156102ce57600080fd5b50610311600480360360208110156102e557600080fd5b81019080803573ffffffffffffffffffffffffffffffffffffffff1690602001909291905050506107d8565b6040518080602001848152602001838152602001828103825285818151815260200191508051906020019080838360005b8381101561035d578082015181840152602081019050610342565b50505050905090810190601f16801561038a5780820380516001836020036101000a031916815260200191505b5094505050505060405180910390f35b60008060019054906101000a900473ffffffffffffffffffffffffffffffffffffffff1673ffffffffffffffffffffffffffffffffffffffff163373ffffffffffffffffffffffffffffffffffffffff1614156103f657600080fd5b600560003373ffffffffffffffffffffffffffffffffffffffff1673ffffffffffffffffffffffffffffffffffffffff16815260200190815260200160002060026000820181600001908054600181600116156101000203166002900461045e92919061089a565b5060018201548160010155600282015481600201559050506000600260010154905060006005600280015442038161049257fe5b04905060008160020260026000809054906101000a900460ff1660ff16816104b657fe5b0460010160ff160a8302905080600660003373ffffffffffffffffffffffffffffffffffffffff1673ffffffffffffffffffffffffffffffffffffffff168152602001908152602001600020819055503373ffffffffffffffffffffffffffffffffffffffff167f7cd0357e7d00a9d8a764d6c824aa86f478aeb9cea59a1b778a3a1d3cffa7d67e846040518082815260200180602001828103825260048152602001807f6865726f000000000000000000000000000000000000000000000000000000008152506020019250505060405180910390a280935050505090565b6000809054906101000a900460ff1681565b600073ffffffffffffffffffffffffffffffffffffffff168173ffffffffffffffffffffffffffffffffffffffff1614156105e257600080fd5b8073ffffffffffffffffffffffffffffffffffffffff166108fc349081150290604051600060405180830381858888f19350505050158015610628573d6000803e3d6000fd5b5050565b600060019054906101000a900473ffffffffffffffffffffffffffffffffffffffff1681565b60066020528060005260406000206000915090505481565b60015481565b600060019054906101000a900473ffffffffffffffffffffffffffffffffffffffff1673ffffffffffffffffffffffffffffffffffffffff163373ffffffffffffffffffffffffffffffffffffffff1614156106cb57600080fd5b600034116106d857600080fd5b6000349050604051806060016040528083815260200182815260200142815250600560003373ffffffffffffffffffffffffffffffffffffffff1673ffffffffffffffffffffffffffffffffffffffff1681526020019081526020016000206000820151816000019080519060200190610753929190610921565b506020820151816001015560408201518160020155905050600060019054906101000a900473ffffffffffffffffffffffffffffffffffffffff1673ffffffffffffffffffffffffffffffffffffffff166108fc349081150290604051600060405180830381858888f193505050501580156107d3573d6000803e3d6000fd5b505050565b6005602052806000526040600020600091509050806000018054600181600116156101000203166002900480601f0160208091040260200160405190810160405280929190818152602001828054600181600116156101000203166002900480156108845780601f1061085957610100808354040283529160200191610884565b820191906000526020600020905b81548152906001019060200180831161086757829003601f168201915b5050505050908060010154908060020154905083565b828054600181600116156101000203166002900490600052602060002090601f016020900481019282601f106108d35780548555610910565b8280016001018555821561091057600052602060002091601f016020900482015b8281111561090f5782548255916001019190600101906108f4565b5b50905061091d91906109a1565b5090565b828054600181600116156101000203166002900490600052602060002090601f016020900481019282601f1061096257805160ff1916838001178555610990565b82800160010185558215610990579182015b8281111561098f578251825591602001919060010190610974565b5b50905061099d91906109a1565b5090565b6109c391905b808211156109bf5760008160009055506001016109a7565b5090565b9056fea265627a7a72315820504e6e76cdb6bbb71f6d3036ea3224984fad38b7f03259700c5354f5150542d064736f6c63430005100032",
  "source": "pragma solidity 0.5.16;\n\ncontract FixedDeposit {\n    uint8 public InterestRate = 10;\n    \n    address payable public bank;\n    \n    struct Deposit {\n        string name;\n        uint256 principle;\n        uint256 dateTimeStarted;\n    }\n    \n    event AmountRead(address indexed _from, uint256 _value, string _random);\n\n    uint256 public thisbalance;\n    \n    Deposit currentDeposit;\n    \n    mapping (address => Deposit) public deposits;\n    mapping (address => uint256) public compoundAmounts;\n    \n    constructor() public {\n        bank = msg.sender;\n    }\n\n    \n    function deposit(string memory _name) payable public {\n        require (msg.sender != bank);\n        require (msg.value > 0);\n        uint256 _principle = msg.value;\n        deposits[msg.sender] =  Deposit(_name, _principle, block.timestamp);\n        bank.transfer(msg.value);\n    }\n    \n    function viewAmount() public returns(uint256) {\n        require (msg.sender != bank);\n        currentDeposit = deposits[msg.sender];\n        uint256 principle = currentDeposit.principle;\n        // require(principle != 0);\n        uint256 time = (block.timestamp - currentDeposit.dateTimeStarted)/5;\n        uint256 amount = principle*(1 + (InterestRate/2))**(2*time);\n        compoundAmounts[msg.sender] = amount;\n        emit AmountRead(msg.sender, principle, \"hero\");\n        return amount;\n    }\n    \n    function withdraw(address payable _beneficiary) payable public {\n        require(_beneficiary != address(0));\n        _beneficiary.transfer(msg.value);\n    }\n}",
  "sourcePath": "/home/suraj/projects/ethereum/fixedDepositLite/contracts/FixedDeposit.sol",
  "compiler": {
    "name": "solc",
    "version": "0.5.16+commit.9c3226ce.Emscripten.clang"
  },
  "schemaVersion": "3.3.3",
  "updatedAt": "2021-02-15T19:50:33.435Z",
  "networkType": "ethereum",
  "devdoc": {
    "methods": {}
  },
  "userdoc": {
    "methods": {}
  }
}